{
  "_format": "hh-sol-artifact-1",
  "contractName": "LandNFT",
  "sourceName": "contracts/LandNFT.sol",
  "abi": [
    {
      "inputs": [],
      "stateMutability": "nonpayable",
      "type": "constructor"
    },
    {
      "inputs": [],
      "name": "CarbonTokenNotSet",
      "type": "error"
    },
    {
      "inputs": [],
      "name": "DuplicatePolygon",
      "type": "error"
    },
    {
      "inputs": [
        {
          "internalType": "address",
          "name": "sender",
          "type": "address"
        },
        {
          "internalType": "uint256",
          "name": "tokenId",
          "type": "uint256"
        },
        {
          "internalType": "address",
          "name": "owner",
          "type": "address"
        }
      ],
      "name": "ERC721IncorrectOwner",
      "type": "error"
    },
    {
      "inputs": [
        {
          "internalType": "address",
          "name": "operator",
          "type": "address"
        },
        {
          "internalType": "uint256",
          "name": "tokenId",
          "type": "uint256"
        }
      ],
      "name": "ERC721InsufficientApproval",
      "type": "error"
    },
    {
      "inputs": [
        {
          "internalType": "address",
          "name": "approver",
          "type": "address"
        }
      ],
      "name": "ERC721InvalidApprover",
      "type": "error"
    },
    {
      "inputs": [
        {
          "internalType": "address",
          "name": "operator",
          "type": "address"
        }
      ],
      "name": "ERC721InvalidOperator",
      "type": "error"
    },
    {
      "inputs": [
        {
          "internalType": "address",
          "name": "owner",
          "type": "address"
        }
      ],
      "name": "ERC721InvalidOwner",
      "type": "error"
    },
    {
      "inputs": [
        {
          "internalType": "address",
          "name": "receiver",
          "type": "address"
        }
      ],
      "name": "ERC721InvalidReceiver",
      "type": "error"
    },
    {
      "inputs": [
        {
          "internalType": "address",
          "name": "sender",
          "type": "address"
        }
      ],
      "name": "ERC721InvalidSender",
      "type": "error"
    },
    {
      "inputs": [
        {
          "internalType": "uint256",
          "name": "tokenId",
          "type": "uint256"
        }
      ],
      "name": "ERC721NonexistentToken",
      "type": "error"
    },
    {
      "inputs": [],
      "name": "InvalidURI",
      "type": "error"
    },
    {
      "inputs": [],
      "name": "OnlyLandOwner",
      "type": "error"
    },
    {
      "inputs": [
        {
          "internalType": "address",
          "name": "owner",
          "type": "address"
        }
      ],
      "name": "OwnableInvalidOwner",
      "type": "error"
    },
    {
      "inputs": [
        {
          "internalType": "address",
          "name": "account",
          "type": "address"
        }
      ],
      "name": "OwnableUnauthorizedAccount",
      "type": "error"
    },
    {
      "inputs": [],
      "name": "ReentrancyGuardReentrantCall",
      "type": "error"
    },
    {
      "anonymous": false,
      "inputs": [
        {
          "indexed": true,
          "internalType": "address",
          "name": "owner",
          "type": "address"
        },
        {
          "indexed": true,
          "internalType": "address",
          "name": "approved",
          "type": "address"
        },
        {
          "indexed": true,
          "internalType": "uint256",
          "name": "tokenId",
          "type": "uint256"
        }
      ],
      "name": "Approval",
      "type": "event"
    },
    {
      "anonymous": false,
      "inputs": [
        {
          "indexed": true,
          "internalType": "address",
          "name": "owner",
          "type": "address"
        },
        {
          "indexed": true,
          "internalType": "address",
          "name": "operator",
          "type": "address"
        },
        {
          "indexed": false,
          "internalType": "bool",
          "name": "approved",
          "type": "bool"
        }
      ],
      "name": "ApprovalForAll",
      "type": "event"
    },
    {
      "anonymous": false,
      "inputs": [
        {
          "indexed": true,
          "internalType": "address",
          "name": "owner",
          "type": "address"
        },
        {
          "indexed": true,
          "internalType": "uint256",
          "name": "tokenId",
          "type": "uint256"
        },
        {
          "indexed": false,
          "internalType": "bytes32",
          "name": "polygonHash",
          "type": "bytes32"
        },
        {
          "indexed": false,
          "internalType": "string",
          "name": "metadataURI",
          "type": "string"
        }
      ],
      "name": "LandRegistered",
      "type": "event"
    },
    {
      "anonymous": false,
      "inputs": [
        {
          "indexed": true,
          "internalType": "address",
          "name": "previousOwner",
          "type": "address"
        },
        {
          "indexed": true,
          "internalType": "address",
          "name": "newOwner",
          "type": "address"
        }
      ],
      "name": "OwnershipTransferred",
      "type": "event"
    },
    {
      "anonymous": false,
      "inputs": [
        {
          "indexed": true,
          "internalType": "address",
          "name": "from",
          "type": "address"
        },
        {
          "indexed": true,
          "internalType": "address",
          "name": "to",
          "type": "address"
        },
        {
          "indexed": true,
          "internalType": "uint256",
          "name": "tokenId",
          "type": "uint256"
        }
      ],
      "name": "Transfer",
      "type": "event"
    },
    {
      "inputs": [
        {
          "internalType": "address",
          "name": "to",
          "type": "address"
        },
        {
          "internalType": "uint256",
          "name": "tokenId",
          "type": "uint256"
        }
      ],
      "name": "approve",
      "outputs": [],
      "stateMutability": "nonpayable",
      "type": "function"
    },
    {
      "inputs": [
        {
          "internalType": "address",
          "name": "owner",
          "type": "address"
        }
      ],
      "name": "balanceOf",
      "outputs": [
        {
          "internalType": "uint256",
          "name": "",
          "type": "uint256"
        }
      ],
      "stateMutability": "view",
      "type": "function"
    },
    {
      "inputs": [],
      "name": "carbonToken",
      "outputs": [
        {
          "internalType": "address",
          "name": "",
          "type": "address"
        }
      ],
      "stateMutability": "view",
      "type": "function"
    },
    {
      "inputs": [
        {
          "internalType": "uint256",
          "name": "tokenId",
          "type": "uint256"
        }
      ],
      "name": "getApproved",
      "outputs": [
        {
          "internalType": "address",
          "name": "",
          "type": "address"
        }
      ],
      "stateMutability": "view",
      "type": "function"
    },
    {
      "inputs": [
        {
          "internalType": "uint256",
          "name": "tokenId",
          "type": "uint256"
        }
      ],
      "name": "getLandInfo",
      "outputs": [
        {
          "components": [
            {
              "internalType": "bytes32",
              "name": "polygonHash",
              "type": "bytes32"
            },
            {
              "internalType": "string",
              "name": "metadataURI",
              "type": "string"
            },
            {
              "internalType": "address",
              "name": "owner",
              "type": "address"
            },
            {
              "internalType": "uint256",
              "name": "registeredAt",
              "type": "uint256"
            }
          ],
          "internalType": "struct LandNFT.LandInfo",
          "name": "",
          "type": "tuple"
        }
      ],
      "stateMutability": "view",
      "type": "function"
    },
    {
      "inputs": [
        {
          "internalType": "address",
          "name": "owner",
          "type": "address"
        }
      ],
      "name": "getTokenIdsOf",
      "outputs": [
        {
          "internalType": "uint256[]",
          "name": "",
          "type": "uint256[]"
        }
      ],
      "stateMutability": "view",
      "type": "function"
    },
    {
      "inputs": [
        {
          "internalType": "address",
          "name": "owner",
          "type": "address"
        },
        {
          "internalType": "address",
          "name": "operator",
          "type": "address"
        }
      ],
      "name": "isApprovedForAll",
      "outputs": [
        {
          "internalType": "bool",
          "name": "",
          "type": "bool"
        }
      ],
      "stateMutability": "view",
      "type": "function"
    },
    {
      "inputs": [
        {
          "internalType": "uint256",
          "name": "",
          "type": "uint256"
        }
      ],
      "name": "landInfo",
      "outputs": [
        {
          "internalType": "bytes32",
          "name": "polygonHash",
          "type": "bytes32"
        },
        {
          "internalType": "string",
          "name": "metadataURI",
          "type": "string"
        },
        {
          "internalType": "address",
          "name": "owner",
          "type": "address"
        },
        {
          "internalType": "uint256",
          "name": "registeredAt",
          "type": "uint256"
        }
      ],
      "stateMutability": "view",
      "type": "function"
    },
    {
      "inputs": [],
      "name": "name",
      "outputs": [
        {
          "internalType": "string",
          "name": "",
          "type": "string"
        }
      ],
      "stateMutability": "view",
      "type": "function"
    },
    {
      "inputs": [],
      "name": "owner",
      "outputs": [
        {
          "internalType": "address",
          "name": "",
          "type": "address"
        }
      ],
      "stateMutability": "view",
      "type": "function"
    },
    {
      "inputs": [
        {
          "internalType": "uint256",
          "name": "tokenId",
          "type": "uint256"
        }
      ],
      "name": "ownerOf",
      "outputs": [
        {
          "internalType": "address",
          "name": "",
          "type": "address"
        }
      ],
      "stateMutability": "view",
      "type": "function"
    },
    {
      "inputs": [
        {
          "internalType": "bytes32",
          "name": "",
          "type": "bytes32"
        }
      ],
      "name": "polygonHashToTokenId",
      "outputs": [
        {
          "internalType": "uint256",
          "name": "",
          "type": "uint256"
        }
      ],
      "stateMutability": "view",
      "type": "function"
    },
    {
      "inputs": [
        {
          "internalType": "bytes32",
          "name": "polygonHash",
          "type": "bytes32"
        },
        {
          "internalType": "string",
          "name": "metadataURI",
          "type": "string"
        }
      ],
      "name": "registerLand",
      "outputs": [],
      "stateMutability": "nonpayable",
      "type": "function"
    },
    {
      "inputs": [],
      "name": "renounceOwnership",
      "outputs": [],
      "stateMutability": "nonpayable",
      "type": "function"
    },
    {
      "inputs": [
        {
          "internalType": "uint256",
          "name": "landTokenId",
          "type": "uint256"
        },
        {
          "internalType": "uint256",
          "name": "amount",
          "type": "uint256"
        }
      ],
      "name": "requestMintCredits",
      "outputs": [],
      "stateMutability": "nonpayable",
      "type": "function"
    },
    {
      "inputs": [
        {
          "internalType": "address",
          "name": "from",
          "type": "address"
        },
        {
          "internalType": "address",
          "name": "to",
          "type": "address"
        },
        {
          "internalType": "uint256",
          "name": "tokenId",
          "type": "uint256"
        }
      ],
      "name": "safeTransferFrom",
      "outputs": [],
      "stateMutability": "nonpayable",
      "type": "function"
    },
    {
      "inputs": [
        {
          "internalType": "address",
          "name": "from",
          "type": "address"
        },
        {
          "internalType": "address",
          "name": "to",
          "type": "address"
        },
        {
          "internalType": "uint256",
          "name": "tokenId",
          "type": "uint256"
        },
        {
          "internalType": "bytes",
          "name": "data",
          "type": "bytes"
        }
      ],
      "name": "safeTransferFrom",
      "outputs": [],
      "stateMutability": "nonpayable",
      "type": "function"
    },
    {
      "inputs": [
        {
          "internalType": "address",
          "name": "operator",
          "type": "address"
        },
        {
          "internalType": "bool",
          "name": "approved",
          "type": "bool"
        }
      ],
      "name": "setApprovalForAll",
      "outputs": [],
      "stateMutability": "nonpayable",
      "type": "function"
    },
    {
      "inputs": [
        {
          "internalType": "address",
          "name": "_carbonToken",
          "type": "address"
        }
      ],
      "name": "setCarbonToken",
      "outputs": [],
      "stateMutability": "nonpayable",
      "type": "function"
    },
    {
      "inputs": [
        {
          "internalType": "bytes4",
          "name": "interfaceId",
          "type": "bytes4"
        }
      ],
      "name": "supportsInterface",
      "outputs": [
        {
          "internalType": "bool",
          "name": "",
          "type": "bool"
        }
      ],
      "stateMutability": "view",
      "type": "function"
    },
    {
      "inputs": [],
      "name": "symbol",
      "outputs": [
        {
          "internalType": "string",
          "name": "",
          "type": "string"
        }
      ],
      "stateMutability": "view",
      "type": "function"
    },
    {
      "inputs": [
        {
          "internalType": "uint256",
          "name": "",
          "type": "uint256"
        }
      ],
      "name": "tokenIdToPolygonHash",
      "outputs": [
        {
          "internalType": "bytes32",
          "name": "",
          "type": "bytes32"
        }
      ],
      "stateMutability": "view",
      "type": "function"
    },
    {
      "inputs": [
        {
          "internalType": "uint256",
          "name": "tokenId",
          "type": "uint256"
        }
      ],
      "name": "tokenURI",
      "outputs": [
        {
          "internalType": "string",
          "name": "",
          "type": "string"
        }
      ],
      "stateMutability": "view",
      "type": "function"
    },
    {
      "inputs": [
        {
          "internalType": "address",
          "name": "from",
          "type": "address"
        },
        {
          "internalType": "address",
          "name": "to",
          "type": "address"
        },
        {
          "internalType": "uint256",
          "name": "tokenId",
          "type": "uint256"
        }
      ],
      "name": "transferFrom",
      "outputs": [],
      "stateMutability": "nonpayable",
      "type": "function"
    },
    {
      "inputs": [
        {
          "internalType": "address",
          "name": "newOwner",
          "type": "address"
        }
      ],
      "name": "transferOwnership",
      "outputs": [],
      "stateMutability": "nonpayable",
      "type": "function"
    }
  ],
  "bytecode": "0x60806040523480156200001157600080fd5b50336040518060400160405280601181526020017010d85c989bdb94da1a595b190813185b99607a1b8152506040518060400160405280600681526020016510d4d310539160d21b81525081600090816200006d9190620001c1565b5060016200007c8282620001c1565b5050506001600160a01b038116620000ae57604051631e4fbdf760e01b81526000600482015260240160405180910390fd5b620000b981620000ca565b50600160078190556008556200028d565b600680546001600160a01b038381166001600160a01b0319831681179093556040519116919082907f8be0079c531659141344cd1fd0a4f28419497f9722a3daafe3b4186f6b6457e090600090a35050565b634e487b7160e01b600052604160045260246000fd5b600181811c908216806200014757607f821691505b6020821081036200016857634e487b7160e01b600052602260045260246000fd5b50919050565b601f821115620001bc57600081815260208120601f850160051c81016020861015620001975750805b601f850160051c820191505b81811015620001b857828155600101620001a3565b5050505b505050565b81516001600160401b03811115620001dd57620001dd6200011c565b620001f581620001ee845462000132565b846200016e565b602080601f8311600181146200022d5760008415620002145750858301515b600019600386901b1c1916600185901b178555620001b8565b600085815260208120601f198616915b828110156200025e578886015182559484019460019091019084016200023d565b50858210156200027d5787850151600019600388901b60f8161c191681555b5050505050600190811b01905550565b611aa0806200029d6000396000f3fe608060405234801561001057600080fd5b50600436106101735760003560e01c806382a71ef2116100de578063c6bdee6111610097578063d603126511610071578063d603126514610372578063e238ee7c14610385578063e985e9c514610398578063f2fde38b146103ab57600080fd5b8063c6bdee611461032c578063c87b56dd1461033f578063d510193f1461035257600080fd5b806382a71ef2146102b75780638da5cb5b146102ca57806395d89b41146102db578063a22cb465146102e3578063b88d4fde146102f6578063c3edcdd11461030957600080fd5b80635324f9aa116101305780635324f9aa1461021b5780635ffa3fbc1461023b5780636352211e146102695780636f6f9bef1461027c57806370a082311461029c578063715018a6146102af57600080fd5b806301ffc9a71461017857806306fdde03146101a0578063081812fc146101b5578063095ea7b3146101e057806323b872dd146101f557806342842e0e14610208575b600080fd5b61018b610186366004611429565b6103be565b60405190151581526020015b60405180910390f35b6101a8610410565b6040516101979190611496565b6101c86101c33660046114a9565b6104a2565b6040516001600160a01b039091168152602001610197565b6101f36101ee3660046114de565b6104cb565b005b6101f3610203366004611508565b6104da565b6101f3610216366004611508565b61056a565b61022e610229366004611544565b61058a565b604051610197919061155f565b61025b6102493660046114a9565b600a6020526000908152604090205481565b604051908152602001610197565b6101c86102773660046114a9565b6105f6565b61028f61028a3660046114a9565b610601565b60405161019791906115a3565b61025b6102aa366004611544565b610704565b6101f361074c565b6009546101c8906001600160a01b031681565b6006546001600160a01b03166101c8565b6101a8610760565b6101f36102f13660046115f4565b61076f565b6101f3610304366004611646565b61077a565b61031c6103173660046114a9565b610792565b6040516101979493929190611722565b6101f361033a366004611544565b61084d565b6101a861034d3660046114a9565b610877565b61025b6103603660046114a9565b600b6020526000908152604090205481565b6101f3610380366004611757565b6108ec565b6101f3610393366004611779565b610a77565b61018b6103a63660046117f5565b610c23565b6101f36103b9366004611544565b610c51565b60006001600160e01b031982166380ac58cd60e01b14806103ef57506001600160e01b03198216635b5e139f60e01b145b8061040a57506301ffc9a760e01b6001600160e01b03198316145b92915050565b60606000805461041f90611828565b80601f016020809104026020016040519081016040528092919081815260200182805461044b90611828565b80156104985780601f1061046d57610100808354040283529160200191610498565b820191906000526020600020905b81548152906001019060200180831161047b57829003601f168201915b5050505050905090565b60006104ad82610c8f565b506000828152600460205260409020546001600160a01b031661040a565b6104d6828233610cc8565b5050565b6001600160a01b03821661050957604051633250574960e11b8152600060048201526024015b60405180910390fd5b6000610516838333610cd5565b9050836001600160a01b0316816001600160a01b031614610564576040516364283d7b60e01b81526001600160a01b0380861660048301526024820184905282166044820152606401610500565b50505050565b6105858383836040518060200160405280600081525061077a565b505050565b6001600160a01b0381166000908152600c60209081526040918290208054835181840281018401909452808452606093928301828280156105ea57602002820191906000526020600020905b8154815260200190600101908083116105d6575b50505050509050919050565b600061040a82610c8f565b60408051608081018252600080825260606020830181905292820181905291810191909152600d60008381526020019081526020016000206040518060800160405290816000820154815260200160018201805461065e90611828565b80601f016020809104026020016040519081016040528092919081815260200182805461068a90611828565b80156106d75780601f106106ac576101008083540402835291602001916106d7565b820191906000526020600020905b8154815290600101906020018083116106ba57829003601f168201915b505050918352505060028201546001600160a01b0316602082015260039091015460409091015292915050565b60006001600160a01b038216610730576040516322718ad960e21b815260006004820152602401610500565b506001600160a01b031660009081526003602052604090205490565b610754610dce565b61075e6000610dfb565b565b60606001805461041f90611828565b6104d6338383610e4d565b6107858484846104da565b6105643385858585610eec565b600d60205260009081526040902080546001820180549192916107b490611828565b80601f01602080910402602001604051908101604052809291908181526020018280546107e090611828565b801561082d5780601f106108025761010080835404028352916020019161082d565b820191906000526020600020905b81548152906001019060200180831161081057829003601f168201915b50505050600283015460039093015491926001600160a01b031691905084565b610855610dce565b600980546001600160a01b0319166001600160a01b0392909216919091179055565b606061088282610c8f565b50600061089a60408051602081019091526000815290565b905060008151116108ba57604051806020016040528060008152506108e5565b806108c484611017565b6040516020016108d5929190611862565b6040516020818303038152906040525b9392505050565b6108f46110aa565b6009546001600160a01b031661091d57604051633e9726b560e21b815260040160405180910390fd5b33610927836105f6565b6001600160a01b03161461094e57604051630ea1efa960e11b815260040160405180910390fd5b6000811161098c5760405162461bcd60e51b815260206004820152600b60248201526a16995c9bc8185b5bdd5b9d60aa1b6044820152606401610500565b60095460405133602482015260448101839052606481018490526000916001600160a01b03169060840160408051601f198184030181529181526020820180516001600160e01b0316630ab714fb60e11b179052516109eb9190611891565b6000604051808303816000865af19150503d8060008114610a28576040519150601f19603f3d011682016040523d82523d6000602084013e610a2d565b606091505b5050905080610a6c5760405162461bcd60e51b815260206004820152600b60248201526a135a5b9d0819985a5b195960aa1b6044820152606401610500565b506104d66001600755565b610a7f6110aa565b6000819003610aa157604051633ba0191160e01b815260040160405180910390fd5b6000838152600a602052604090205415610ace576040516308dc5e8d60e01b815260040160405180910390fd5b6008805460009182610adf836118ad565b919050559050610aef33826110d4565b6000848152600a60209081526040808320849055838352600b82529182902086905581516080810183528681528251601f860183900483028101830190935284835291828201918690869081908401838280828437600092018290525093855250503360208085019190915242604094850152858352600d8152929091208351815591830151600183019150610b85908261191a565b506040828101516002830180546001600160a01b0319166001600160a01b03909216919091179055606090920151600390910155336000818152600c6020908152838220805460018101825590835291200183905590518291907fcba51d4c24e9c63cd0be3a68750088beec86943b7d790da451d3c36a06b1690490610c10908890889088906119da565b60405180910390a3506105856001600755565b6001600160a01b03918216600090815260056020908152604080832093909416825291909152205460ff1690565b610c59610dce565b6001600160a01b038116610c8357604051631e4fbdf760e01b815260006004820152602401610500565b610c8c81610dfb565b50565b6000818152600260205260408120546001600160a01b03168061040a57604051637e27328960e01b815260048101849052602401610500565b61058583838360016110ee565b6000828152600260205260408120546001600160a01b0390811690831615610d0257610d028184866111f4565b6001600160a01b03811615610d4057610d1f6000856000806110ee565b6001600160a01b038116600090815260036020526040902080546000190190555b6001600160a01b03851615610d6f576001600160a01b0385166000908152600360205260409020805460010190555b60008481526002602052604080822080546001600160a01b0319166001600160a01b0389811691821790925591518793918516917fddf252ad1be2c89b69c2b068fc378daa952ba7f163c4a11628f55a4df523b3ef91a4949350505050565b6006546001600160a01b0316331461075e5760405163118cdaa760e01b8152336004820152602401610500565b600680546001600160a01b038381166001600160a01b0319831681179093556040519116919082907f8be0079c531659141344cd1fd0a4f28419497f9722a3daafe3b4186f6b6457e090600090a35050565b6001600160a01b038216610e7f57604051630b61174360e31b81526001600160a01b0383166004820152602401610500565b6001600160a01b03838116600081815260056020908152604080832094871680845294825291829020805460ff191686151590811790915591519182527f17307eab39ab6107e8899845ad3d59bd9653f200f220920489ca2b5937696c31910160405180910390a3505050565b6001600160a01b0383163b1561101057604051630a85bd0160e11b81526001600160a01b0384169063150b7a0290610f2e908890889087908790600401611a10565b6020604051808303816000875af1925050508015610f69575060408051601f3d908101601f19168201909252610f6691810190611a4d565b60015b610fd2573d808015610f97576040519150601f19603f3d011682016040523d82523d6000602084013e610f9c565b606091505b508051600003610fca57604051633250574960e11b81526001600160a01b0385166004820152602401610500565b805160208201fd5b6001600160e01b03198116630a85bd0160e11b1461100e57604051633250574960e11b81526001600160a01b0385166004820152602401610500565b505b5050505050565b6060600061102483611258565b600101905060008167ffffffffffffffff81111561104457611044611630565b6040519080825280601f01601f19166020018201604052801561106e576020820181803683370190505b5090508181016020015b600019016f181899199a1a9b1b9c1cb0b131b232b360811b600a86061a8153600a850494508461107857509392505050565b6002600754036110cd57604051633ee5aeb560e01b815260040160405180910390fd5b6002600755565b6104d6828260405180602001604052806000815250611330565b808061110257506001600160a01b03821615155b156111c457600061111284610c8f565b90506001600160a01b0383161580159061113e5750826001600160a01b0316816001600160a01b031614155b8015611151575061114f8184610c23565b155b1561117a5760405163a9fbf51f60e01b81526001600160a01b0384166004820152602401610500565b81156111c25783856001600160a01b0316826001600160a01b03167f8c5be1e5ebec7d5bd14f71427d1e84f3dd0314c0f7b2291e5b200ac8c7c3b92560405160405180910390a45b505b5050600090815260046020526040902080546001600160a01b0319166001600160a01b0392909216919091179055565b6111ff838383611348565b610585576001600160a01b03831661122d57604051637e27328960e01b815260048101829052602401610500565b60405163177e802f60e01b81526001600160a01b038316600482015260248101829052604401610500565b60008072184f03e93ff9f4daa797ed6e38ed64bf6a1f0160401b83106112975772184f03e93ff9f4daa797ed6e38ed64bf6a1f0160401b830492506040015b6d04ee2d6d415b85acef810000000083106112c3576d04ee2d6d415b85acef8100000000830492506020015b662386f26fc1000083106112e157662386f26fc10000830492506010015b6305f5e10083106112f9576305f5e100830492506008015b612710831061130d57612710830492506004015b6064831061131f576064830492506002015b600a831061040a5760010192915050565b61133a83836113ae565b610585336000858585610eec565b60006001600160a01b038316158015906113a65750826001600160a01b0316846001600160a01b0316148061138257506113828484610c23565b806113a657506000828152600460205260409020546001600160a01b038481169116145b949350505050565b6001600160a01b0382166113d857604051633250574960e11b815260006004820152602401610500565b60006113e683836000610cd5565b90506001600160a01b03811615610585576040516339e3563760e11b815260006004820152602401610500565b6001600160e01b031981168114610c8c57600080fd5b60006020828403121561143b57600080fd5b81356108e581611413565b60005b83811015611461578181015183820152602001611449565b50506000910152565b60008151808452611482816020860160208601611446565b601f01601f19169290920160200192915050565b6020815260006108e5602083018461146a565b6000602082840312156114bb57600080fd5b5035919050565b80356001600160a01b03811681146114d957600080fd5b919050565b600080604083850312156114f157600080fd5b6114fa836114c2565b946020939093013593505050565b60008060006060848603121561151d57600080fd5b611526846114c2565b9250611534602085016114c2565b9150604084013590509250925092565b60006020828403121561155657600080fd5b6108e5826114c2565b6020808252825182820181905260009190848201906040850190845b818110156115975783518352928401929184019160010161157b565b50909695505050505050565b602081528151602082015260006020830151608060408401526115c960a084018261146a565b60408501516001600160a01b0316606085810191909152909401516080909301929092525090919050565b6000806040838503121561160757600080fd5b611610836114c2565b91506020830135801515811461162557600080fd5b809150509250929050565b634e487b7160e01b600052604160045260246000fd5b6000806000806080858703121561165c57600080fd5b611665856114c2565b9350611673602086016114c2565b925060408501359150606085013567ffffffffffffffff8082111561169757600080fd5b818701915087601f8301126116ab57600080fd5b8135818111156116bd576116bd611630565b604051601f8201601f19908116603f011681019083821181831017156116e5576116e5611630565b816040528281528a60208487010111156116fe57600080fd5b82602086016020830137600060208483010152809550505050505092959194509250565b84815260806020820152600061173b608083018661146a565b6001600160a01b03949094166040830152506060015292915050565b6000806040838503121561176a57600080fd5b50508035926020909101359150565b60008060006040848603121561178e57600080fd5b83359250602084013567ffffffffffffffff808211156117ad57600080fd5b818601915086601f8301126117c157600080fd5b8135818111156117d057600080fd5b8760208285010111156117e257600080fd5b6020830194508093505050509250925092565b6000806040838503121561180857600080fd5b611811836114c2565b915061181f602084016114c2565b90509250929050565b600181811c9082168061183c57607f821691505b60208210810361185c57634e487b7160e01b600052602260045260246000fd5b50919050565b60008351611874818460208801611446565b835190830190611888818360208801611446565b01949350505050565b600082516118a3818460208701611446565b9190910192915050565b6000600182016118cd57634e487b7160e01b600052601160045260246000fd5b5060010190565b601f82111561058557600081815260208120601f850160051c810160208610156118fb5750805b601f850160051c820191505b8181101561100e57828155600101611907565b815167ffffffffffffffff81111561193457611934611630565b611948816119428454611828565b846118d4565b602080601f83116001811461197d57600084156119655750858301515b600019600386901b1c1916600185901b17855561100e565b600085815260208120601f198616915b828110156119ac5788860151825594840194600190910190840161198d565b50858210156119ca5787850151600019600388901b60f8161c191681555b5050505050600190811b01905550565b83815260406020820152816040820152818360608301376000818301606090810191909152601f909201601f1916010192915050565b6001600160a01b0385811682528416602082015260408101839052608060608201819052600090611a439083018461146a565b9695505050505050565b600060208284031215611a5f57600080fd5b81516108e58161141356fea2646970667358221220696aa2d2b4107730bded61a949e588de999ac40a739f479b4cf8dbdecac1416564736f6c63430008140033",
  "linkReferences": {},
  "deployedLinkReferences": {}
}