{
  "_format": "hh-sol-artifact-1",
  "contractName": "CarbonCreditToken",
  "sourceName": "contracts/CarbonCreditToken.sol",
  "abi": [
    {
      "inputs": [],
      "stateMutability": "nonpayable",
      "type": "constructor"
    },
    {
      "inputs": [
        {
          "internalType": "address",
          "name": "spender",
          "type": "address"
        },
        {
          "internalType": "uint256",
          "name": "allowance",
          "type": "uint256"
        },
        {
          "internalType": "uint256",
          "name": "needed",
          "type": "uint256"
        }
      ],
      "name": "ERC20InsufficientAllowance",
      "type": "error"
    },
    {
      "inputs": [
        {
          "internalType": "address",
          "name": "sender",
          "type": "address"
        },
        {
          "internalType": "uint256",
          "name": "balance",
          "type": "uint256"
        },
        {
          "internalType": "uint256",
          "name": "needed",
          "type": "uint256"
        }
      ],
      "name": "ERC20InsufficientBalance",
      "type": "error"
    },
    {
      "inputs": [
        {
          "internalType": "address",
          "name": "approver",
          "type": "address"
        }
      ],
      "name": "ERC20InvalidApprover",
      "type": "error"
    },
    {
      "inputs": [
        {
          "internalType": "address",
          "name": "receiver",
          "type": "address"
        }
      ],
      "name": "ERC20InvalidReceiver",
      "type": "error"
    },
    {
      "inputs": [
        {
          "internalType": "address",
          "name": "sender",
          "type": "address"
        }
      ],
      "name": "ERC20InvalidSender",
      "type": "error"
    },
    {
      "inputs": [
        {
          "internalType": "address",
          "name": "spender",
          "type": "address"
        }
      ],
      "name": "ERC20InvalidSpender",
      "type": "error"
    },
    {
      "inputs": [],
      "name": "LandNFTNotSet",
      "type": "error"
    },
    {
      "inputs": [],
      "name": "OnlyLandNFT",
      "type": "error"
    },
    {
      "inputs": [
        {
          "internalType": "address",
          "name": "owner",
          "type": "address"
        }
      ],
      "name": "OwnableInvalidOwner",
      "type": "error"
    },
    {
      "inputs": [
        {
          "internalType": "address",
          "name": "account",
          "type": "address"
        }
      ],
      "name": "OwnableUnauthorizedAccount",
      "type": "error"
    },
    {
      "inputs": [],
      "name": "ZeroAmount",
      "type": "error"
    },
    {
      "anonymous": false,
      "inputs": [
        {
          "indexed": true,
          "internalType": "address",
          "name": "owner",
          "type": "address"
        },
        {
          "indexed": true,
          "internalType": "address",
          "name": "spender",
          "type": "address"
        },
        {
          "indexed": false,
          "internalType": "uint256",
          "name": "value",
          "type": "uint256"
        }
      ],
      "name": "Approval",
      "type": "event"
    },
    {
      "anonymous": false,
      "inputs": [
        {
          "indexed": true,
          "internalType": "address",
          "name": "to",
          "type": "address"
        },
        {
          "indexed": false,
          "internalType": "uint256",
          "name": "amount",
          "type": "uint256"
        },
        {
          "indexed": false,
          "internalType": "uint256",
          "name": "landTokenId",
          "type": "uint256"
        }
      ],
      "name": "CarbonMinted",
      "type": "event"
    },
    {
      "anonymous": false,
      "inputs": [
        {
          "indexed": true,
          "internalType": "address",
          "name": "from",
          "type": "address"
        },
        {
          "indexed": false,
          "internalType": "uint256",
          "name": "amount",
          "type": "uint256"
        },
        {
          "indexed": false,
          "internalType": "string",
          "name": "reason",
          "type": "string"
        }
      ],
      "name": "CreditRetired",
      "type": "event"
    },
    {
      "anonymous": false,
      "inputs": [
        {
          "indexed": true,
          "internalType": "address",
          "name": "previousOwner",
          "type": "address"
        },
        {
          "indexed": true,
          "internalType": "address",
          "name": "newOwner",
          "type": "address"
        }
      ],
      "name": "OwnershipTransferred",
      "type": "event"
    },
    {
      "anonymous": false,
      "inputs": [
        {
          "indexed": true,
          "internalType": "address",
          "name": "from",
          "type": "address"
        },
        {
          "indexed": true,
          "internalType": "address",
          "name": "to",
          "type": "address"
        },
        {
          "indexed": false,
          "internalType": "uint256",
          "name": "value",
          "type": "uint256"
        }
      ],
      "name": "Transfer",
      "type": "event"
    },
    {
      "inputs": [
        {
          "internalType": "address",
          "name": "owner",
          "type": "address"
        },
        {
          "internalType": "address",
          "name": "spender",
          "type": "address"
        }
      ],
      "name": "allowance",
      "outputs": [
        {
          "internalType": "uint256",
          "name": "",
          "type": "uint256"
        }
      ],
      "stateMutability": "view",
      "type": "function"
    },
    {
      "inputs": [
        {
          "internalType": "address",
          "name": "spender",
          "type": "address"
        },
        {
          "internalType": "uint256",
          "name": "value",
          "type": "uint256"
        }
      ],
      "name": "approve",
      "outputs": [
        {
          "internalType": "bool",
          "name": "",
          "type": "bool"
        }
      ],
      "stateMutability": "nonpayable",
      "type": "function"
    },
    {
      "inputs": [
        {
          "internalType": "address",
          "name": "account",
          "type": "address"
        }
      ],
      "name": "balanceOf",
      "outputs": [
        {
          "internalType": "uint256",
          "name": "",
          "type": "uint256"
        }
      ],
      "stateMutability": "view",
      "type": "function"
    },
    {
      "inputs": [],
      "name": "decimals",
      "outputs": [
        {
          "internalType": "uint8",
          "name": "",
          "type": "uint8"
        }
      ],
      "stateMutability": "view",
      "type": "function"
    },
    {
      "inputs": [],
      "name": "landNFT",
      "outputs": [
        {
          "internalType": "address",
          "name": "",
          "type": "address"
        }
      ],
      "stateMutability": "view",
      "type": "function"
    },
    {
      "inputs": [
        {
          "internalType": "address",
          "name": "to",
          "type": "address"
        },
        {
          "internalType": "uint256",
          "name": "amount",
          "type": "uint256"
        },
        {
          "internalType": "uint256",
          "name": "landTokenId",
          "type": "uint256"
        }
      ],
      "name": "mint",
      "outputs": [],
      "stateMutability": "nonpayable",
      "type": "function"
    },
    {
      "inputs": [],
      "name": "name",
      "outputs": [
        {
          "internalType": "string",
          "name": "",
          "type": "string"
        }
      ],
      "stateMutability": "view",
      "type": "function"
    },
    {
      "inputs": [],
      "name": "owner",
      "outputs": [
        {
          "internalType": "address",
          "name": "",
          "type": "address"
        }
      ],
      "stateMutability": "view",
      "type": "function"
    },
    {
      "inputs": [],
      "name": "renounceOwnership",
      "outputs": [],
      "stateMutability": "nonpayable",
      "type": "function"
    },
    {
      "inputs": [
        {
          "internalType": "uint256",
          "name": "amount",
          "type": "uint256"
        },
        {
          "internalType": "string",
          "name": "reason",
          "type": "string"
        }
      ],
      "name": "retire",
      "outputs": [],
      "stateMutability": "nonpayable",
      "type": "function"
    },
    {
      "inputs": [
        {
          "internalType": "address",
          "name": "_landNFT",
          "type": "address"
        }
      ],
      "name": "setLandNFT",
      "outputs": [],
      "stateMutability": "nonpayable",
      "type": "function"
    },
    {
      "inputs": [],
      "name": "symbol",
      "outputs": [
        {
          "internalType": "string",
          "name": "",
          "type": "string"
        }
      ],
      "stateMutability": "view",
      "type": "function"
    },
    {
      "inputs": [],
      "name": "totalSupply",
      "outputs": [
        {
          "internalType": "uint256",
          "name": "",
          "type": "uint256"
        }
      ],
      "stateMutability": "view",
      "type": "function"
    },
    {
      "inputs": [
        {
          "internalType": "address",
          "name": "to",
          "type": "address"
        },
        {
          "internalType": "uint256",
          "name": "value",
          "type": "uint256"
        }
      ],
      "name": "transfer",
      "outputs": [
        {
          "internalType": "bool",
          "name": "",
          "type": "bool"
        }
      ],
      "stateMutability": "nonpayable",
      "type": "function"
    },
    {
      "inputs": [
        {
          "internalType": "address",
          "name": "from",
          "type": "address"
        },
        {
          "internalType": "address",
          "name": "to",
          "type": "address"
        },
        {
          "internalType": "uint256",
          "name": "value",
          "type": "uint256"
        }
      ],
      "name": "transferFrom",
      "outputs": [
        {
          "internalType": "bool",
          "name": "",
          "type": "bool"
        }
      ],
      "stateMutability": "nonpayable",
      "type": "function"
    },
    {
      "inputs": [
        {
          "internalType": "address",
          "name": "newOwner",
          "type": "address"
        }
      ],
      "name": "transferOwnership",
      "outputs": [],
      "stateMutability": "nonpayable",
      "type": "function"
    }
  ],
  "bytecode": "0x60806040523480156200001157600080fd5b50336040518060400160405280601381526020017f436172626f6e536869656c6420437265646974000000000000000000000000008152506040518060400160405280600381526020016243534360e81b8152508160039081620000769190620001c0565b506004620000858282620001c0565b5050506001600160a01b038116620000b757604051631e4fbdf760e01b81526000600482015260240160405180910390fd5b620000c281620000c9565b506200028c565b600580546001600160a01b038381166001600160a01b0319831681179093556040519116919082907f8be0079c531659141344cd1fd0a4f28419497f9722a3daafe3b4186f6b6457e090600090a35050565b634e487b7160e01b600052604160045260246000fd5b600181811c908216806200014657607f821691505b6020821081036200016757634e487b7160e01b600052602260045260246000fd5b50919050565b601f821115620001bb57600081815260208120601f850160051c81016020861015620001965750805b601f850160051c820191505b81811015620001b757828155600101620001a2565b5050505b505050565b81516001600160401b03811115620001dc57620001dc6200011b565b620001f481620001ed845462000131565b846200016d565b602080601f8311600181146200022c5760008415620002135750858301515b600019600386901b1c1916600185901b178555620001b7565b600085815260208120601f198616915b828110156200025d578886015182559484019460019091019084016200023c565b50858210156200027c5787850151600019600388901b60f8161c191681555b5050505050600190811b01905550565b610bb5806200029c6000396000f3fe608060405234801561001057600080fd5b50600436106101005760003560e01c806370a0823111610097578063a9059cbb11610066578063a9059cbb1461021b578063ab0e23781461022e578063dd62ed3e14610241578063f2fde38b1461027a57600080fd5b806370a08231146101d1578063715018a6146101fa5780638da5cb5b1461020257806395d89b411461021357600080fd5b806323b872dd116100d357806323b872dd14610171578063313ce5671461018457806339d022e1146101935780635f09ffbd146101be57600080fd5b806306fdde0314610105578063095ea7b314610123578063156e29f61461014657806318160ddd1461015b575b600080fd5b61010d61028d565b60405161011a919061091a565b60405180910390f35b610136610131366004610984565b61031f565b604051901515815260200161011a565b6101596101543660046109ae565b610339565b005b610163610402565b60405190815260200161011a565b61013661017f3660046109e1565b610412565b6040516012815260200161011a565b6006546101a6906001600160a01b031681565b6040516001600160a01b03909116815260200161011a565b6101596101cc366004610a1d565b610436565b6101636101df366004610a99565b6001600160a01b031660009081526020819052604090205490565b61015961049e565b6005546001600160a01b03166101a6565b61010d6104b2565b610136610229366004610984565b6104c1565b61015961023c366004610a99565b6104cf565b61016361024f366004610abb565b6001600160a01b03918216600090815260016020908152604080832093909416825291909152205490565b610159610288366004610a99565b6104f9565b60606003805461029c90610aee565b80601f01602080910402602001604051908101604052809291908181526020018280546102c890610aee565b80156103155780601f106102ea57610100808354040283529160200191610315565b820191906000526020600020905b8154815290600101906020018083116102f857829003601f168201915b5050505050905090565b60003361032d81858561053c565b60019150505b92915050565b6006546001600160a01b031661036257604051630c051bfb60e41b815260040160405180910390fd5b6006546001600160a01b0316331461038d57604051630a0ef96960e11b815260040160405180910390fd5b816000036103ae57604051631f2a200560e01b815260040160405180910390fd5b6103b8838361054e565b60408051838152602081018390526001600160a01b038516917f8fae6f8a29ca661705e1707bbcb6e25313f1b9d619bc378327ed50696d227de891015b60405180910390a2505050565b600061040d60025490565b905090565b600033610420858285610588565b61042b858585610607565b506001949350505050565b8260000361045757604051631f2a200560e01b815260040160405180910390fd5b6104613384610666565b336001600160a01b03167fff60c673836ca064dc282560dfa7e03a7a01724e272c200d5c78e591830450998484846040516103f593929190610b28565b6104a661069c565b6104b060006106c9565b565b60606004805461029c90610aee565b60003361032d818585610607565b6104d761069c565b600680546001600160a01b0319166001600160a01b0392909216919091179055565b61050161069c565b6001600160a01b03811661053057604051631e4fbdf760e01b8152600060048201526024015b60405180910390fd5b610539816106c9565b50565b610549838383600161071b565b505050565b6001600160a01b0382166105785760405163ec442f0560e01b815260006004820152602401610527565b610584600083836107f0565b5050565b6001600160a01b0383811660009081526001602090815260408083209386168352929052205460001981101561060157818110156105f257604051637dc7a0d960e11b81526001600160a01b03841660048201526024810182905260448101839052606401610527565b6106018484848403600061071b565b50505050565b6001600160a01b03831661063157604051634b637e8f60e11b815260006004820152602401610527565b6001600160a01b03821661065b5760405163ec442f0560e01b815260006004820152602401610527565b6105498383836107f0565b6001600160a01b03821661069057604051634b637e8f60e11b815260006004820152602401610527565b610584826000836107f0565b6005546001600160a01b031633146104b05760405163118cdaa760e01b8152336004820152602401610527565b600580546001600160a01b038381166001600160a01b0319831681179093556040519116919082907f8be0079c531659141344cd1fd0a4f28419497f9722a3daafe3b4186f6b6457e090600090a35050565b6001600160a01b0384166107455760405163e602df0560e01b815260006004820152602401610527565b6001600160a01b03831661076f57604051634a1406b160e11b815260006004820152602401610527565b6001600160a01b038085166000908152600160209081526040808320938716835292905220829055801561060157826001600160a01b0316846001600160a01b03167f8c5be1e5ebec7d5bd14f71427d1e84f3dd0314c0f7b2291e5b200ac8c7c3b925846040516107e291815260200190565b60405180910390a350505050565b6001600160a01b03831661081b5780600260008282546108109190610b5e565b9091555061088d9050565b6001600160a01b0383166000908152602081905260409020548181101561086e5760405163391434e360e21b81526001600160a01b03851660048201526024810182905260448101839052606401610527565b6001600160a01b03841660009081526020819052604090209082900390555b6001600160a01b0382166108a9576002805482900390556108c8565b6001600160a01b03821660009081526020819052604090208054820190555b816001600160a01b0316836001600160a01b03167fddf252ad1be2c89b69c2b068fc378daa952ba7f163c4a11628f55a4df523b3ef8360405161090d91815260200190565b60405180910390a3505050565b600060208083528351808285015260005b818110156109475785810183015185820160400152820161092b565b506000604082860101526040601f19601f8301168501019250505092915050565b80356001600160a01b038116811461097f57600080fd5b919050565b6000806040838503121561099757600080fd5b6109a083610968565b946020939093013593505050565b6000806000606084860312156109c357600080fd5b6109cc84610968565b95602085013595506040909401359392505050565b6000806000606084860312156109f657600080fd5b6109ff84610968565b9250610a0d60208501610968565b9150604084013590509250925092565b600080600060408486031215610a3257600080fd5b83359250602084013567ffffffffffffffff80821115610a5157600080fd5b818601915086601f830112610a6557600080fd5b813581811115610a7457600080fd5b876020828501011115610a8657600080fd5b6020830194508093505050509250925092565b600060208284031215610aab57600080fd5b610ab482610968565b9392505050565b60008060408385031215610ace57600080fd5b610ad783610968565b9150610ae560208401610968565b90509250929050565b600181811c90821680610b0257607f821691505b602082108103610b2257634e487b7160e01b600052602260045260246000fd5b50919050565b83815260406020820152816040820152818360608301376000818301606090810191909152601f909201601f1916010192915050565b8082018082111561033357634e487b7160e01b600052601160045260246000fdfea264697066735822122054448306fba56d31a475ce83b3898921a2e7ad520e73233f5d24165be088a66864736f6c63430008140033",
  "linkReferences": {},
  "deployedLinkReferences": {}
}